{
  "address": "0x984f797d26d3da2E9b9f8Ae4eeFEACC60fCAA90C",
  "abi": [
    {
      "inputs": [],
      "stateMutability": "nonpayable",
      "type": "constructor"
    },
    {
      "anonymous": false,
      "inputs": [
        {
          "indexed": true,
          "internalType": "address",
          "name": "_owner",
          "type": "address"
        },
        {
          "indexed": true,
          "internalType": "address",
          "name": "_spender",
          "type": "address"
        },
        {
          "indexed": false,
          "internalType": "uint256",
          "name": "_value",
          "type": "uint256"
        }
      ],
      "name": "Approval",
      "type": "event"
    },
    {
      "anonymous": false,
      "inputs": [
        {
          "indexed": true,
          "internalType": "address",
          "name": "_from",
          "type": "address"
        },
        {
          "indexed": true,
          "internalType": "address",
          "name": "_to",
          "type": "address"
        },
        {
          "indexed": false,
          "internalType": "uint256",
          "name": "_value",
          "type": "uint256"
        }
      ],
      "name": "Transfer",
      "type": "event"
    },
    {
      "inputs": [
        {
          "internalType": "address",
          "name": "_owner",
          "type": "address"
        },
        {
          "internalType": "address",
          "name": "_spender",
          "type": "address"
        }
      ],
      "name": "allowance",
      "outputs": [
        {
          "internalType": "uint256",
          "name": "remaining",
          "type": "uint256"
        }
      ],
      "stateMutability": "view",
      "type": "function"
    },
    {
      "inputs": [
        {
          "internalType": "address",
          "name": "_spender",
          "type": "address"
        },
        {
          "internalType": "uint256",
          "name": "_value",
          "type": "uint256"
        }
      ],
      "name": "approve",
      "outputs": [
        {
          "internalType": "bool",
          "name": "success",
          "type": "bool"
        }
      ],
      "stateMutability": "nonpayable",
      "type": "function"
    },
    {
      "inputs": [
        {
          "internalType": "address",
          "name": "_owner",
          "type": "address"
        }
      ],
      "name": "balanceOf",
      "outputs": [
        {
          "internalType": "uint256",
          "name": "balance",
          "type": "uint256"
        }
      ],
      "stateMutability": "view",
      "type": "function"
    },
    {
      "inputs": [
        {
          "internalType": "uint256",
          "name": "_value",
          "type": "uint256"
        }
      ],
      "name": "burn",
      "outputs": [
        {
          "internalType": "bool",
          "name": "success",
          "type": "bool"
        }
      ],
      "stateMutability": "nonpayable",
      "type": "function"
    },
    {
      "inputs": [
        {
          "internalType": "address",
          "name": "_from",
          "type": "address"
        },
        {
          "internalType": "uint256",
          "name": "_value",
          "type": "uint256"
        }
      ],
      "name": "burnFrom",
      "outputs": [
        {
          "internalType": "bool",
          "name": "success",
          "type": "bool"
        }
      ],
      "stateMutability": "nonpayable",
      "type": "function"
    },
    {
      "inputs": [],
      "name": "decimals",
      "outputs": [
        {
          "internalType": "uint8",
          "name": "",
          "type": "uint8"
        }
      ],
      "stateMutability": "view",
      "type": "function"
    },
    {
      "inputs": [
        {
          "internalType": "address",
          "name": "_to",
          "type": "address"
        },
        {
          "internalType": "uint256",
          "name": "_value",
          "type": "uint256"
        }
      ],
      "name": "mint",
      "outputs": [
        {
          "internalType": "bool",
          "name": "success",
          "type": "bool"
        }
      ],
      "stateMutability": "nonpayable",
      "type": "function"
    },
    {
      "inputs": [],
      "name": "name",
      "outputs": [
        {
          "internalType": "string",
          "name": "",
          "type": "string"
        }
      ],
      "stateMutability": "view",
      "type": "function"
    },
    {
      "inputs": [],
      "name": "symbol",
      "outputs": [
        {
          "internalType": "string",
          "name": "",
          "type": "string"
        }
      ],
      "stateMutability": "view",
      "type": "function"
    },
    {
      "inputs": [],
      "name": "totalSupply",
      "outputs": [
        {
          "internalType": "uint256",
          "name": "",
          "type": "uint256"
        }
      ],
      "stateMutability": "view",
      "type": "function"
    },
    {
      "inputs": [
        {
          "internalType": "address",
          "name": "_to",
          "type": "address"
        },
        {
          "internalType": "uint256",
          "name": "_value",
          "type": "uint256"
        }
      ],
      "name": "transfer",
      "outputs": [
        {
          "internalType": "bool",
          "name": "success",
          "type": "bool"
        }
      ],
      "stateMutability": "nonpayable",
      "type": "function"
    },
    {
      "inputs": [
        {
          "internalType": "address",
          "name": "_from",
          "type": "address"
        },
        {
          "internalType": "address",
          "name": "_to",
          "type": "address"
        },
        {
          "internalType": "uint256",
          "name": "_value",
          "type": "uint256"
        }
      ],
      "name": "transferFrom",
      "outputs": [
        {
          "internalType": "bool",
          "name": "success",
          "type": "bool"
        }
      ],
      "stateMutability": "nonpayable",
      "type": "function"
    }
  ],
  "transactionHash": "0x7a6f087537ad666ebee08cb2f78087121e7a30a6c0de94433bdd5625b9145be8",
  "args": [],
  "numDeployments": 1,
  "solcInputHash": "5227f362c927037e0538c533dec9904c",
  "bytecode": "0x60806040523480156200001157600080fd5b506040805180820190915260078152662621aa37b5b2b760c91b60208201526000906200003f908262000127565b506040805180820190915260038152621310d560ea1b602082015260019062000069908262000127565b506002805460ff191660121790556000600355620001f3565b634e487b7160e01b600052604160045260246000fd5b600181811c90821680620000ad57607f821691505b602082108103620000ce57634e487b7160e01b600052602260045260246000fd5b50919050565b601f8211156200012257600081815260208120601f850160051c81016020861015620000fd5750805b601f850160051c820191505b818110156200011e5782815560010162000109565b5050505b505050565b81516001600160401b0381111562000143576200014362000082565b6200015b8162000154845462000098565b84620000d4565b602080601f8311600181146200019357600084156200017a5750858301515b600019600386901b1c1916600185901b1785556200011e565b600085815260208120601f198616915b82811015620001c457888601518255948401946001909101908401620001a3565b5085821015620001e35787850151600019600388901b60f8161c191681555b5050505050600190811b01905550565b610cbd80620002036000396000f3fe608060405234801561001057600080fd5b50600436106100b45760003560e01c806342966c681161007157806342966c681461014757806370a082311461015a57806379cc67901461018357806395d89b4114610196578063a9059cbb1461019e578063dd62ed3e146101b157600080fd5b806306fdde03146100b9578063095ea7b3146100d757806318160ddd146100fa57806323b872dd1461010c578063313ce5671461011f57806340c10f1914610134575b600080fd5b6100c16101ea565b6040516100ce9190610a7c565b60405180910390f35b6100ea6100e5366004610ae6565b61027c565b60405190151581526020016100ce565b6003545b6040519081526020016100ce565b6100ea61011a366004610b10565b61033f565b60025460405160ff90911681526020016100ce565b6100ea610142366004610ae6565b610556565b6100ea610155366004610b4c565b61063e565b6100fe610168366004610b65565b6001600160a01b031660009081526004602052604090205490565b6100ea610191366004610ae6565b610758565b6100c1610973565b6100ea6101ac366004610ae6565b610982565b6100fe6101bf366004610b87565b6001600160a01b03918216600090815260056020908152604080832093909416825291909152205490565b6060600080546101f990610bba565b80601f016020809104026020016040519081016040528092919081815260200182805461022590610bba565b80156102725780601f1061024757610100808354040283529160200191610272565b820191906000526020600020905b81548152906001019060200180831161025557829003601f168201915b5050505050905090565b60006001600160a01b0383166102d95760405162461bcd60e51b815260206004820152601760248201527f496e76616c6964207370656e646572206164647265737300000000000000000060448201526064015b60405180910390fd5b3360008181526005602090815260408083206001600160a01b03881680855290835292819020869055518581529192917f8c5be1e5ebec7d5bd14f71427d1e84f3dd0314c0f7b2291e5b200ac8c7c3b92591015b60405180910390a35060015b92915050565b60006001600160a01b0384166103905760405162461bcd60e51b8152602060048201526016602482015275496e76616c69642073656e646572206164647265737360501b60448201526064016102d0565b6001600160a01b0383166103b65760405162461bcd60e51b81526004016102d090610bf4565b6001600160a01b0384166000908152600460205260409020548211156104155760405162461bcd60e51b8152602060048201526014602482015273496e73756666696369656e742062616c616e636560601b60448201526064016102d0565b6001600160a01b038416600090815260056020908152604080832033845290915290205482111561047d5760405162461bcd60e51b8152602060048201526012602482015271105b1b1bddd85b98d948195e18d95959195960721b60448201526064016102d0565b6001600160a01b038416600090815260046020526040812080548492906104a5908490610c41565b90915550506001600160a01b038316600090815260046020526040812080548492906104d2908490610c54565b90915550506001600160a01b03841660009081526005602090815260408083203384529091528120805484929061050a908490610c41565b92505081905550826001600160a01b0316846001600160a01b0316600080516020610c688339815191528460405161054491815260200190565b60405180910390a35060019392505050565b60006001600160a01b03831661057e5760405162461bcd60e51b81526004016102d090610bf4565b600082116105ce5760405162461bcd60e51b815260206004820152601b60248201527f4d696e742076616c7565206d75737420626520706f736974697665000000000060448201526064016102d0565b81600360008282546105e09190610c54565b90915550506001600160a01b0383166000908152600460205260408120805484929061060d908490610c54565b90915550506040518281526001600160a01b03841690600090600080516020610c688339815191529060200161032d565b3360009081526004602052604081205482111561069d5760405162461bcd60e51b815260206004820152601c60248201527f496e73756666696369656e742062616c616e636520746f206275726e0000000060448201526064016102d0565b600082116106ed5760405162461bcd60e51b815260206004820152601b60248201527f4275726e2076616c7565206d75737420626520706f736974697665000000000060448201526064016102d0565b336000908152600460205260408120805484929061070c908490610c41565b9250508190555081600360008282546107259190610c41565b90915550506040518281526000903390600080516020610c688339815191529060200160405180910390a3506001919050565b60006001600160a01b0383166107a95760405162461bcd60e51b8152602060048201526016602482015275496e76616c69642073656e646572206164647265737360501b60448201526064016102d0565b6001600160a01b0383166000908152600460205260409020548211156108115760405162461bcd60e51b815260206004820152601c60248201527f496e73756666696369656e742062616c616e636520746f206275726e0000000060448201526064016102d0565b6001600160a01b03831660009081526005602090815260408083203384529091529020548211156108795760405162461bcd60e51b8152602060048201526012602482015271105b1b1bddd85b98d948195e18d95959195960721b60448201526064016102d0565b600082116108c95760405162461bcd60e51b815260206004820152601b60248201527f4275726e2076616c7565206d75737420626520706f736974697665000000000060448201526064016102d0565b6001600160a01b038316600090815260046020526040812080548492906108f1908490610c41565b90915550506001600160a01b038316600090815260056020908152604080832033845290915281208054849290610929908490610c41565b9250508190555081600360008282546109429190610c41565b90915550506040518281526000906001600160a01b03851690600080516020610c688339815191529060200161032d565b6060600180546101f990610bba565b60006001600160a01b0383166109aa5760405162461bcd60e51b81526004016102d090610bf4565b33600090815260046020526040902054821115610a005760405162461bcd60e51b8152602060048201526014602482015273496e73756666696369656e742062616c616e636560601b60448201526064016102d0565b3360009081526004602052604081208054849290610a1f908490610c41565b90915550506001600160a01b03831660009081526004602052604081208054849290610a4c908490610c54565b90915550506040518281526001600160a01b038416903390600080516020610c688339815191529060200161032d565b600060208083528351808285015260005b81811015610aa957858101830151858201604001528201610a8d565b506000604082860101526040601f19601f8301168501019250505092915050565b80356001600160a01b0381168114610ae157600080fd5b919050565b60008060408385031215610af957600080fd5b610b0283610aca565b946020939093013593505050565b600080600060608486031215610b2557600080fd5b610b2e84610aca565b9250610b3c60208501610aca565b9150604084013590509250925092565b600060208284031215610b5e57600080fd5b5035919050565b600060208284031215610b7757600080fd5b610b8082610aca565b9392505050565b60008060408385031215610b9a57600080fd5b610ba383610aca565b9150610bb160208401610aca565b90509250929050565b600181811c90821680610bce57607f821691505b602082108103610bee57634e487b7160e01b600052602260045260246000fd5b50919050565b60208082526019908201527f496e76616c696420726563697069656e74206164647265737300000000000000604082015260600190565b634e487b7160e01b600052601160045260246000fd5b8181038181111561033957610339610c2b565b8082018082111561033957610339610c2b56feddf252ad1be2c89b69c2b068fc378daa952ba7f163c4a11628f55a4df523b3efa2646970667358221220156b0aa06c1b85c74a733137f7579819e51ec53bf1f898f6b5e9cf5f96949cd164736f6c63430008140033",
  "devdoc": {
    "kind": "dev",
    "methods": {},
    "version": 1
  },
  "userdoc": {
    "kind": "user",
    "methods": {},
    "version": 1
  },
  "storageLayout": {
    "storage": [
      {
        "astId": 3,
        "contract": "contracts/LCToken.sol:LCToken",
        "label": "_name",
        "offset": 0,
        "slot": "0",
        "type": "t_string_storage"
      },
      {
        "astId": 5,
        "contract": "contracts/LCToken.sol:LCToken",
        "label": "_symbol",
        "offset": 0,
        "slot": "1",
        "type": "t_string_storage"
      },
      {
        "astId": 7,
        "contract": "contracts/LCToken.sol:LCToken",
        "label": "_decimals",
        "offset": 0,
        "slot": "2",
        "type": "t_uint8"
      },
      {
        "astId": 9,
        "contract": "contracts/LCToken.sol:LCToken",
        "label": "_totalSupply",
        "offset": 0,
        "slot": "3",
        "type": "t_uint256"
      },
      {
        "astId": 13,
        "contract": "contracts/LCToken.sol:LCToken",
        "label": "_balances",
        "offset": 0,
        "slot": "4",
        "type": "t_mapping(t_address,t_uint256)"
      },
      {
        "astId": 19,
        "contract": "contracts/LCToken.sol:LCToken",
        "label": "_allowances",
        "offset": 0,
        "slot": "5",
        "type": "t_mapping(t_address,t_mapping(t_address,t_uint256))"
      }
    ],
    "types": {
      "t_address": {
        "encoding": "inplace",
        "label": "address",
        "numberOfBytes": "20"
      },
      "t_mapping(t_address,t_mapping(t_address,t_uint256))": {
        "encoding": "mapping",
        "key": "t_address",
        "label": "mapping(address => mapping(address => uint256))",
        "numberOfBytes": "32",
        "value": "t_mapping(t_address,t_uint256)"
      },
      "t_mapping(t_address,t_uint256)": {
        "encoding": "mapping",
        "key": "t_address",
        "label": "mapping(address => uint256)",
        "numberOfBytes": "32",
        "value": "t_uint256"
      },
      "t_string_storage": {
        "encoding": "bytes",
        "label": "string",
        "numberOfBytes": "32"
      },
      "t_uint256": {
        "encoding": "inplace",
        "label": "uint256",
        "numberOfBytes": "32"
      },
      "t_uint8": {
        "encoding": "inplace",
        "label": "uint8",
        "numberOfBytes": "1"
      }
    }
  }
}